{
  "_format": "hh-sol-artifact-1",
  "contractName": "EnsName",
  "sourceName": "src/backend/contracts/EnsName.sol",
  "abi": [
    {
      "inputs": [
        {
          "internalType": "uint256",
          "name": "_itemId",
          "type": "uint256"
        }
      ],
      "name": "buyENS",
      "outputs": [],
      "stateMutability": "payable",
      "type": "function"
    },
    {
      "inputs": [],
      "name": "itemCount",
      "outputs": [
        {
          "internalType": "uint256",
          "name": "",
          "type": "uint256"
        }
      ],
      "stateMutability": "view",
      "type": "function"
    },
    {
      "inputs": [
        {
          "internalType": "uint256",
          "name": "",
          "type": "uint256"
        }
      ],
      "name": "items",
      "outputs": [
        {
          "internalType": "uint256",
          "name": "itemId",
          "type": "uint256"
        },
        {
          "internalType": "string",
          "name": "name",
          "type": "string"
        },
        {
          "internalType": "uint256",
          "name": "tokenId",
          "type": "uint256"
        },
        {
          "internalType": "uint256",
          "name": "price",
          "type": "uint256"
        },
        {
          "internalType": "bool",
          "name": "listed",
          "type": "bool"
        },
        {
          "internalType": "address payable",
          "name": "seller",
          "type": "address"
        },
        {
          "internalType": "address",
          "name": "tokenContract",
          "type": "address"
        }
      ],
      "stateMutability": "view",
      "type": "function"
    },
    {
      "inputs": [
        {
          "internalType": "string",
          "name": "_name",
          "type": "string"
        },
        {
          "internalType": "uint256",
          "name": "_tokenId",
          "type": "uint256"
        },
        {
          "internalType": "uint256",
          "name": "_price",
          "type": "uint256"
        },
        {
          "internalType": "address",
          "name": "_tokenContract",
          "type": "address"
        }
      ],
      "name": "listENS",
      "outputs": [],
      "stateMutability": "nonpayable",
      "type": "function"
    },
    {
      "stateMutability": "payable",
      "type": "receive"
    }
  ],
  "bytecode": "0x608060405234801561001057600080fd5b5061154e806100206000396000f3fe6080604052600436106100435760003560e01c80636bfb0d011461004f578063bbfd825f1461007a578063bfb231d2146100a3578063f3eee385146100e65761004a565b3661004a57005b600080fd5b34801561005b57600080fd5b50610064610102565b604051610071919061096e565b60405180910390f35b34801561008657600080fd5b506100a1600480360381019061009c9190610b6d565b610108565b005b3480156100af57600080fd5b506100ca60048036038101906100c59190610bf0565b61034d565b6040516100dd9796959493929190610ce7565b60405180910390f35b61010060048036038101906100fb9190610bf0565b610464565b005b60005481565b6000821161014b576040517f08c379a000000000000000000000000000000000000000000000000000000000815260040161014290610da9565b60405180910390fd5b6101947fd9b67a26000000000000000000000000000000000000000000000000000000008273ffffffffffffffffffffffffffffffffffffffff1661082490919063ffffffff16565b6101d3576040517f08c379a00000000000000000000000000000000000000000000000000000000081526004016101ca90610e15565b60405180910390fd5b6000808154809291906101e590610e64565b91905055506040518060e0016040528060005481526020018581526020018481526020018381526020016001151581526020013373ffffffffffffffffffffffffffffffffffffffff1681526020018273ffffffffffffffffffffffffffffffffffffffff16815250600160008054815260200190815260200160002060008201518160000155602082015181600101908161028191906110b8565b50604082015181600201556060820151816003015560808201518160040160006101000a81548160ff02191690831515021790555060a08201518160040160016101000a81548173ffffffffffffffffffffffffffffffffffffffff021916908373ffffffffffffffffffffffffffffffffffffffff16021790555060c08201518160050160006101000a81548173ffffffffffffffffffffffffffffffffffffffff021916908373ffffffffffffffffffffffffffffffffffffffff16021790555090505050505050565b600160205280600052604060002060009150905080600001549080600101805461037690610edb565b80601f01602080910402602001604051908101604052809291908181526020018280546103a290610edb565b80156103ef5780601f106103c4576101008083540402835291602001916103ef565b820191906000526020600020905b8154815290600101906020018083116103d257829003601f168201915b5050505050908060020154908060030154908060040160009054906101000a900460ff16908060040160019054906101000a900473ffffffffffffffffffffffffffffffffffffffff16908060050160009054906101000a900473ffffffffffffffffffffffffffffffffffffffff16905087565b6000600160008381526020019081526020016000206040518060e00160405290816000820154815260200160018201805461049e90610edb565b80601f01602080910402602001604051908101604052809291908181526020018280546104ca90610edb565b80156105175780601f106104ec57610100808354040283529160200191610517565b820191906000526020600020905b8154815290600101906020018083116104fa57829003601f168201915b5050505050815260200160028201548152602001600382015481526020016004820160009054906101000a900460ff161515151581526020016004820160019054906101000a900473ffffffffffffffffffffffffffffffffffffffff1673ffffffffffffffffffffffffffffffffffffffff1673ffffffffffffffffffffffffffffffffffffffff1681526020016005820160009054906101000a900473ffffffffffffffffffffffffffffffffffffffff1673ffffffffffffffffffffffffffffffffffffffff1673ffffffffffffffffffffffffffffffffffffffff168152505090508060600151341015610644576040517f08c379a000000000000000000000000000000000000000000000000000000000815260040161063b906111d6565b60405180910390fd5b60008211801561065657506000548211155b610695576040517f08c379a000000000000000000000000000000000000000000000000000000000815260040161068c90611242565b60405180910390fd5b6001151581608001511515146106e0576040517f08c379a00000000000000000000000000000000000000000000000000000000081526004016106d7906112d4565b60405180910390fd5b8060c0015173ffffffffffffffffffffffffffffffffffffffff1663f242432a8260a0015133846040015160016040518563ffffffff1660e01b815260040161072c94939291906113bb565b600060405180830381600087803b15801561074657600080fd5b505af115801561075a573d6000803e3d6000fd5b50505050600081608001901515908115158152505060008160a0015173ffffffffffffffffffffffffffffffffffffffff163460405161079990611441565b60006040518083038185875af1925050503d80600081146107d6576040519150601f19603f3d011682016040523d82523d6000602084013e6107db565b606091505b505090508061081f576040517f08c379a0000000000000000000000000000000000000000000000000000000008152600401610816906114a2565b60405180910390fd5b505050565b600061082f83610849565b801561084157506108408383610896565b5b905092915050565b6000610875827f01ffc9a700000000000000000000000000000000000000000000000000000000610896565b801561088f575061088d8263ffffffff60e01b610896565b155b9050919050565b6000806301ffc9a760e01b836040516024016108b291906114fd565b604051602081830303815290604052907bffffffffffffffffffffffffffffffffffffffffffffffffffffffff19166020820180517bffffffffffffffffffffffffffffffffffffffffffffffffffffffff838183161783525050505090506000806000602060008551602087018a617530fa92503d9150600051905082801561093d575060208210155b80156109495750600081115b94505050505092915050565b6000819050919050565b61096881610955565b82525050565b6000602082019050610983600083018461095f565b92915050565b6000604051905090565b600080fd5b600080fd5b600080fd5b600080fd5b6000601f19601f8301169050919050565b7f4e487b7100000000000000000000000000000000000000000000000000000000600052604160045260246000fd5b6109f0826109a7565b810181811067ffffffffffffffff82111715610a0f57610a0e6109b8565b5b80604052505050565b6000610a22610989565b9050610a2e82826109e7565b919050565b600067ffffffffffffffff821115610a4e57610a4d6109b8565b5b610a57826109a7565b9050602081019050919050565b82818337600083830152505050565b6000610a86610a8184610a33565b610a18565b905082815260208101848484011115610aa257610aa16109a2565b5b610aad848285610a64565b509392505050565b600082601f830112610aca57610ac961099d565b5b8135610ada848260208601610a73565b91505092915050565b610aec81610955565b8114610af757600080fd5b50565b600081359050610b0981610ae3565b92915050565b600073ffffffffffffffffffffffffffffffffffffffff82169050919050565b6000610b3a82610b0f565b9050919050565b610b4a81610b2f565b8114610b5557600080fd5b50565b600081359050610b6781610b41565b92915050565b60008060008060808587031215610b8757610b86610993565b5b600085013567ffffffffffffffff811115610ba557610ba4610998565b5b610bb187828801610ab5565b9450506020610bc287828801610afa565b9350506040610bd387828801610afa565b9250506060610be487828801610b58565b91505092959194509250565b600060208284031215610c0657610c05610993565b5b6000610c1484828501610afa565b91505092915050565b600081519050919050565b600082825260208201905092915050565b60005b83811015610c57578082015181840152602081019050610c3c565b60008484015250505050565b6000610c6e82610c1d565b610c788185610c28565b9350610c88818560208601610c39565b610c91816109a7565b840191505092915050565b60008115159050919050565b610cb181610c9c565b82525050565b6000610cc282610b0f565b9050919050565b610cd281610cb7565b82525050565b610ce181610b2f565b82525050565b600060e082019050610cfc600083018a61095f565b8181036020830152610d0e8189610c63565b9050610d1d604083018861095f565b610d2a606083018761095f565b610d376080830186610ca8565b610d4460a0830185610cc9565b610d5160c0830184610cd8565b98975050505050505050565b7f50726963652073686f756c642062652067726561746572207468616e20300000600082015250565b6000610d93601e83610c28565b9150610d9e82610d5d565b602082019050919050565b60006020820190508181036000830152610dc281610d86565b9050919050565b7f546f6b656e20636f6e7472616374206d75737420626520455243313135350000600082015250565b6000610dff601e83610c28565b9150610e0a82610dc9565b602082019050919050565b60006020820190508181036000830152610e2e81610df2565b9050919050565b7f4e487b7100000000000000000000000000000000000000000000000000000000600052601160045260246000fd5b6000610e6f82610955565b91507fffffffffffffffffffffffffffffffffffffffffffffffffffffffffffffffff8203610ea157610ea0610e35565b5b600182019050919050565b7f4e487b7100000000000000000000000000000000000000000000000000000000600052602260045260246000fd5b60006002820490506001821680610ef357607f821691505b602082108103610f0657610f05610eac565b5b50919050565b60008190508160005260206000209050919050565b60006020601f8301049050919050565b600082821b905092915050565b600060088302610f6e7fffffffffffffffffffffffffffffffffffffffffffffffffffffffffffffffff82610f31565b610f788683610f31565b95508019841693508086168417925050509392505050565b6000819050919050565b6000610fb5610fb0610fab84610955565b610f90565b610955565b9050919050565b6000819050919050565b610fcf83610f9a565b610fe3610fdb82610fbc565b848454610f3e565b825550505050565b600090565b610ff8610feb565b611003818484610fc6565b505050565b5b818110156110275761101c600082610ff0565b600181019050611009565b5050565b601f82111561106c5761103d81610f0c565b61104684610f21565b81016020851015611055578190505b61106961106185610f21565b830182611008565b50505b505050565b600082821c905092915050565b600061108f60001984600802611071565b1980831691505092915050565b60006110a8838361107e565b9150826002028217905092915050565b6110c182610c1d565b67ffffffffffffffff8111156110da576110d96109b8565b5b6110e48254610edb565b6110ef82828561102b565b600060209050601f8311600181146111225760008415611110578287015190505b61111a858261109c565b865550611182565b601f19841661113086610f0c565b60005b8281101561115857848901518255600182019150602085019450602081019050611133565b868310156111755784890151611171601f89168261107e565b8355505b6001600288020188555050505b505050505050565b7f50726963652073656e74206973206e6f7420636f727265637400000000000000600082015250565b60006111c0601983610c28565b91506111cb8261118a565b602082019050919050565b600060208201905081810360008301526111ef816111b3565b9050919050565b7f57726f6e67206974656d49640000000000000000000000000000000000000000600082015250565b600061122c600c83610c28565b9150611237826111f6565b602082019050919050565b6000602082019050818103600083015261125b8161121f565b9050919050565b7f54686973206974656d20697320686173206e6f74206265656e206c697374656460008201527f20666f722073616c650000000000000000000000000000000000000000000000602082015250565b60006112be602983610c28565b91506112c982611262565b604082019050919050565b600060208201905081810360008301526112ed816112b1565b9050919050565b600061130f61130a61130584610b0f565b610f90565b610b0f565b9050919050565b6000611321826112f4565b9050919050565b600061133382611316565b9050919050565b61134381611328565b82525050565b6000819050919050565b600061136e61136961136484611349565b610f90565b610955565b9050919050565b61137e81611353565b82525050565b600082825260208201905092915050565b50565b60006113a5600083611384565b91506113b082611395565b600082019050919050565b600060a0820190506113d0600083018761133a565b6113dd6020830186610cd8565b6113ea604083018561095f565b6113f76060830184611375565b818103608083015261140881611398565b905095945050505050565b600081905092915050565b600061142b600083611413565b915061143682611395565b600082019050919050565b600061144c8261141e565b9150819050919050565b7f4661696c656420746f2073656e64204574686572000000000000000000000000600082015250565b600061148c601483610c28565b915061149782611456565b602082019050919050565b600060208201905081810360008301526114bb8161147f565b9050919050565b60007fffffffff0000000000000000000000000000000000000000000000000000000082169050919050565b6114f7816114c2565b82525050565b600060208201905061151260008301846114ee565b9291505056fea2646970667358221220d03e50183b4a3c827579174f7843861e962d058788d81527bfd0df086b69689664736f6c63430008110033",
  "linkReferences": {},
  "deployedLinkReferences": {}
}